:100000003AC05EC0B7C1B6C15BC05AC059C058C083
:1000100057C056C055C0ADC4DDC752C051C050C056
:100020004FC044617461204163717569736974697B
:100030006F6E2053797374656D000000000000043A
:1000400003020100000001020408102040800402A5
:100050000108010101010101010102020202000087
:100060003900360000003B00380000003A0037003D
:10007000AD001308C40011241FBECFE5D2E0DEBFDF
:10008000CDBF10E0A0E6B0E0ECE8F1E102C00590E1
:100090000D92AE38B107D9F721E0AEE8B0E001C06B
:1000A0001D92AB34B207E1F710E0CAE3D0E003C021
:1000B0002197FE0159D8C833D107D1F7D0D75AC8F4
:1000C0009FCF87B1836987B986B1876086B913B836
:1000D000379A369A3699FECF25B184B190E0922BAB
:1000E000089540E855E260E070E080E990E039D2A0
:1000F00020E042E060E18FEA90E05BD362E270E0F2
:100100008FEA90E0E6D568EE73E080E090E0A2C46C
:10011000D8DF90938F0080938E0060E670E085E1D9
:1001200091E0BDD560918E0070918F004AE050E063
:1001300080E990E0B1D663E670E085E191E0AFD56B
:1001400080E8CBD44AE050E0BC0180E990E083D65F
:1001500064E670E080E090E07DC4CF92EF920F9370
:1001600085E0C82E94E0E92E03E022E041E060E063
:100170008FEA90E0C1D320E049E068E080E990E0B8
:100180000F91EF90CF90C4C180E990E06DC12091B4
:10019000090130910A0128173907B9F49091C70075
:1001A0008091C800981789F0E091C700F0E0E7530C
:1001B000FF4F80812091C70030E02F5F3F4F2F73AA
:1001C00033272093C70090E008958FEF9FEF0895A5
:1001D0001F93CF93DF93DC015C962D913C915D974B
:1001E0002115310539F481E090E013969C938E93AC
:1001F00012973DC05196ED91FC91529750969C916B
:100200005097892F80951FB75E964C915E9741FB62
:10021000772770F941FD6095F8944081772311F0BC
:10022000492B01C048234083E9012197F1F748E0B9
:10023000508160FF02C0592B01C058235083E9014F
:100240002197F1F76695415099F7772321F0908136
:100250008923808303C08081982B90831FBF5C9685
:100260008D919C915D970197F1F721E030E0C901F4
:10027000DF91CF911F9108952091090130910A01DA
:100280002817390781F49091C7008091C80098170A
:1002900051F0E091C700F0E0E753FF4F8081082E56
:1002A000000C990B08958FEF9FEF0895209109019D
:1002B00030910A012817390769F48091C80020910C
:1002C000C70090E0805C9F4F821B910960E470E062
:1002D000E6D6089580E090E00895209109013091DC
:1002E0000A012817390739F48FB7F8941092C8001B
:1002F0001092C7008FBF0895E0910901F0910A01A3
:10030000E817F90769F4A389B4899C9185898095D8
:1003100089238C9310920A011092090181E00895BB
:1003200080E00895CF93DF93EC018A8D9B8D892B1C
:10033000E9F08091090190910A018C179D07B1F0B5
:10034000009709F0D9DF8E8D8E7F8E8F1092C800B6
:100350001092C700D0930A01C0930901EB89FC8970
:1003600090818D89892B808381E001C080E0DF91BD
:10037000CF9108951F920F920FB60F9211242F93D1
:100380003F934F935F936F937F938F939F93AF931D
:10039000BF93EF93FF93E0910901F0910A01309729
:1003A00009F451C0968DA685B785858591FF04C057
:1003B0009C91892329F447C09C91892309F043C06B
:1003C000A389B4899C918589809589238C9386899A
:1003D00097890197F1F7608D718DA685B785558551
:1003E00038E020E0CB010197F1F7822F90E095955E
:1003F0008795282F4C91452309F02068315091F7BB
:10040000868D81FD20958091C80090E001968F73C4
:1004100099273091C700381749F0A091C800B0E083
:10042000A753BF4F2C938093C80003C0868D816073
:10043000868F828D938D0197F1F7A389B4899C9162
:100440008589892B8C93FF91EF91BF91AF919F91FB
:100450008F917F916F915F914F913F912F910F906D
:100460000FBE0F901F9018952AE630E0FC013183F3
:10047000208342CF1F93CF93DF93EC01162F6E8D15
:100480006695617081E06827812F98D361E0812FA4
:1004900057D3612F70E0FB01EA5BFF4FE491E88BDB
:1004A000FB01EE5AFF4FE491F0E0EE0FFF1FEC5915
:1004B000FF4F859194919A8B898BDF91CF911F91FA
:1004C00008951F93CF93DF93EC01162F60E0812FE7
:1004D00037D38E8D81FD03C061E0812F6FD31C87E0
:1004E000612F70E0FB01EA5BFF4FE491ED87FB01B8
:1004F000EE5AFF4FE491F0E0EE0FFF1FE25AFF4F7C
:10050000859194919F878E87DF91CF911F91089558
:100510001F93CF93DF93EC01162F1B821A8288EE74
:1005200093E0A0E0B0E08C839D83AE83BF838AE636
:1005300090E0998388831F8A1E8A198E188E1B8EDD
:100540001A8E1D8E1C8E8E8D8E7F20FB81F98E8FD4
:10055000642FCE018FDF612FCE01DF91CF911F91EC
:10056000B0CFCF93DF93EC019A01AB011B8E1A8EB3
:10057000198E188E1F8A1E8A60E874E88EE190E05A
:10058000C3D5B9012430310518F0C901039702C061
:1005900081E090E09D8F8C8FEC85EC3008F054C0AA
:1005A000C901969587958431910510F0439702C053
:1005B00081E090E09F8B8E8B6630710518F0C90149
:1005C000059702C081E090E0998F888FC90163E0B0
:1005D00070E054D596958795969587958D309105C1
:1005E00010F00C9702C081E090E09B8F8A8F8BB750
:1005F000E83010F090E201C090E1892B8BBF9C8520
:10060000983028F09B3030F020E030E005C022E345
:1006100030E002C020E430E03C8B2B8B983030F48B
:1006200081E001C0880F9A95EAF709C02AE030E01E
:10063000291B310981E001C0880F2A95EAF78D8BCB
:100640008C8D9D8D0197F1F7CE01DF91CF916ACE10
:10065000CF93DF93EC0160E08E81B0D281E090E037
:100660001ED261E08E81AAD281E090E018D260E0D3
:100670008E81A4D284E690E0DF91CF9110C2AF9238
:10068000BF92CF92DF92EF92FF920F931F93CF937F
:10069000DF935C017C0187E0E80EF11CC0E0D0E054
:1006A000062F10E0670161E0F70181917F0148D2D8
:1006B000B8010C2E02C0759567950A94E2F7617037
:1006C000F60180817BD22196C430D10559F7C5014E
:1006D000DF91CF911F910F91FF90EF90DF90CF901E
:1006E000BF90AF90B5CFAF92BF92CF92DF92EF9213
:1006F000FF920F931F93CF93DF935C017C0187E000
:10070000E80EF11CC0E0D0E0062F10E0670161E0C8
:10071000F70181917F0114D2B8010C2E02C07595AA
:1007200067950A94E2F76170F601808147D22196BD
:10073000C830D10559F7C501DF91CF911F910F91B5
:10074000FF90EF90DF90CF90BF90AF9081CF1F933D
:10075000CF93DF93EC01162F642F8C812FD28D81E4
:100760008F3F11F060E02AD28F85612F84FF05C092
:10077000CE01DF91CF911F91B6CF70E084E07595E7
:1007800067958A95E1F7CE017ADF612FCE01DF917F
:10079000CF911F9174CF40E0DACF61E0FCDF80EDB4
:1007A00097E07DC1FC016089262F2460208B6C605E
:1007B000F2CFCF93DF93EC01423018F08F85886041
:1007C0008F874B8B1C8A80E48D8B6E8B70E0605C16
:1007D0007F4F6F8B222329F0413019F48F8584607D
:1007E0008F8780E593EC5BD160E08C81E7D160E09E
:1007F0008E81E4D18D818F3F11F060E0DFD16F8574
:1008000064FD16C063E0CE013ADF84E991E147D18F
:1008100063E0CE0134DF84E991E141D163E0CE01B0
:100820002EDF86E990E03BD162E0CE0128DF11C0E7
:100830006062CE01B0DF84E991E131D16F85606201
:10084000CE01A9DF86E990E02AD16F856062CE01F2
:10085000A2DF6F856062CE019EDF84E0888BCE01CF
:10086000A1DFCE019ADF82E0898B66E0CE01DF91C5
:10087000CF9191CF6F927F928F92AF92CF92EF9262
:100880000F931F93CF93DF93CDB7DEB73C01162FA5
:10089000842F5D854E853F859889F3018483258368
:1008A0000683E782C086A186828653874487358780
:1008B000968761E045D1F30185818F3F11F061E0BA
:1008C0003FD161E0F30186813BD1112319F0F3019F
:1008D000178603C080E1F301878720E041E060E1F3
:1008E000C301DF91CF911F910F91EF90CF90AF9007
:1008F0008F907F906F905DCF8F92AF92CF92EF925B
:100900000F93DC0113961C921E921297EAE7F0E017
:10091000ED93FC931F921F921F921F928C2CAE2C72
:10092000C02EE22E042F2FEF462F61E0A3DF0F90A1
:100930000F900F900F900F91EF90CF90AF908F90FE
:10094000089541E004DF81E090E008958EB5887F4E
:100950008EBD8FB581608FBD8FB58D7F8FBD8EB5FC
:10096000877F8EBD8EB58F7E8EBD8EB583608EBD2A
:1009700008951F920F920FB60F9211242F933F9359
:100980008F939F93AF93BF9380910C0190910D0132
:10099000A0910E01B0910F0130910B0126E0230FC1
:1009A0002D3730F029E8230F0396A11DB11D03C098
:1009B0000296A11DB11D20930B0180930C01909311
:1009C0000D01A0930E01B0930F0180911001909141
:1009D0001101A0911201B09113010196A11DB11D49
:1009E0008093100190931101A0931201B093130111
:1009F000BF91AF919F918F913F912F910F900FBE1B
:100A00000F901F9018953FB7F89480911001909126
:100A10001101A0911201B091130122B708B600FE96
:100A200005C02F3F19F00196A11DB11D3FBFBA2F80
:100A3000A92F982F8827820F911DA11DB11DBC01E0
:100A4000CD0143E0660F771F881F991F4A95D1F7A4
:100A500008950895CF92DF92EF92FF92CF93DF93A4
:100A60006B017C01D0DFEB01C114D104E104F1047E
:100A700079F0EFDFC8DF6C1B7D0B683E7340A0F39D
:100A800081E0C81AD108E108F108C851DC4FF2CF63
:100A9000DF91CF91FF90EF90DF90CF90089583305A
:100AA000910528F0880F991F04970197F1F7089591
:100AB00080B7826080BF80B7816080BF83B7887F46
:100AC000836083BF789489B7816089BF3FDF86B137
:100AD0008877866886B9379A08958F739091140144
:100AE0009295990F990F907C892B87B9369A3699F0
:100AF000FECF84B125B190E0922B0895813031F47E
:100B000080B78F7780BF80B78F7B07C0823039F482
:100B100080B78F7D80BF80B78F7E80BF0895833080
:100B200031F48FB58F778FBD8FB58F7B07C0843041
:100B300031F48FB58F7D8FBD8FB58F7E8FBD0895BA
:100B4000CF93DF9387FD8F7790E0FC01EA5BFF4F47
:100B50002491FC01EE5AFF4F8491882361F190E0CB
:100B6000880F991FFC01E659FF4FC591D491FC01F4
:100B7000EC59FF4FA591B491611109C09FB7F8944A
:100B80008881209582238883EC912E230BC06230CC
:100B900061F49FB7F8943881822F809583238883EE
:100BA000EC912E2B2C939FBF06C08FB7F894E88151
:100BB0002E2B28838FBFDF91CF9108950F931F9322
:100BC000CF93DF931F92CDB7DEB787FD8F77282FA6
:100BD00030E0F901E65CFF4F8491F901EA5BFF4FD9
:100BE0001491F901EE5AFF4F04910023D9F08823A4
:100BF00019F0698383DF6981E02FF0E0EE0FFF1FBA
:100C0000EC59FF4FA591B4918FB7611106C0F894CC
:100C10009C91E12FE095E92303C0F894EC91E12B3E
:100C2000EC938FBF0F90DF91CF911F910F9108959B
:100C3000CF92DF92EF92FF920F931F93CF93DF93A8
:100C40006C01EB017B01E40EF51E00E010E0CE1517
:100C5000DF0561F06991D601ED91FC910190F08181
:100C6000E02DC6010995080F191FF1CFC801DF91CA
:100C7000CF911F910F91FF90EF90DF90CF9008954B
:100C8000FB0101900020E9F73197AF01461B570B9C
:100C9000DC01ED91FC910280F381E02D0994F0CF0D
:100CA000DC01ED91FC910190F081E02D09940F930E
:100CB0001F93CF93DF93EC016DE0F2DF8C016AE0CC
:100CC000CE01EEDF800F911FDF91CF911F910F9129
:100CD0000895EF92FF920F931F93CF93DF938C01B0
:100CE0007B01C0E0D0E0F701EC0FFD1F64916623AB
:100CF00061F0D801ED91FC910190F081E02DC801E7
:100D00000995892B11F02196EECFCE01DF91CF917D
:100D10001F910F91FF90EF9008958F929F92AF9245
:100D2000BF92CF92DF92EF92FF920F931F93CF93D8
:100D3000DF93CDB7DEB7A1970FB6F894DEBF0FBE35
:100D4000CDBF6C01142FE52FCB01022F19A2223049
:100D500008F40AE07E0121E2E20EF11C802E912CC3
:100D6000A12CB12C612F7E2FA5019401ABD1802F36
:100D7000622F7BD1181B81E0E81AF1081A3014F4B5
:100D8000105D01C0195CF7011083122FE32FCA0117
:100D9000232B242B252B31F7B701C60171DFA19638
:100DA0000FB6F894DEBF0FBECDBFDF91CF911F917C
:100DB0000F91FF90EF90DF90CF90BF90AF909F90FA
:100DC0008F900895CF92DF92EF92FF920F931F932F
:100DD000CF93DF93EC016A017B012115310579F492
:100DE000E881F9810190F081E02D642FDF91CF91AE
:100DF0001F910F91FF90EF90DF90CF9009942A30D0
:100E0000310501F577FF0CC06DE24ADF8C01F094EB
:100E1000E094D094C094C11CD11CE11CF11C02C010
:100E200000E010E02AE0B701A601CE0176DF800FD6
:100E3000911FDF91CF911F910F91FF90EF90DF9065
:100E4000CF900895DF91CF911F910F91FF90EF9078
:100E5000DF90CF9062CF0F931F93CF93DF93EC017E
:100E60009A01AB01770F660B770BACDF8C01CE01DB
:100E70001EDF800F911FDF91CF911F910F91089579
:100E80002115310541F4DC01ED91FC910190F081D7
:100E9000E02D642F099441CF0F931F93CF93DF93DD
:100EA000EC019A01AB0160E070E0EADF8C01CE0159
:100EB000FEDE800F911FDF91CF911F910F9108955A
:100EC000DC011F96ED91FC91509780A191A122A188
:100ED00033A1821B930B8F7199270895DC011F9614
:100EE000ED91FC91509782A193A120A131A12817E7
:100EF000390729F0E80FF91F808190E008958FEFFE
:100F00009FEF0895DC011F96ED91FC91509722A16F
:100F100033A180A191A18217930761F0DF01A20F95
:100F2000B31F8C912F5F3F4F2F71332733A322A321
:100F300090E008958FEF9FEF08952FB7F894FC018C
:100F4000458556853AE06095089420F47BB3752377
:100F50007BBB04C07BB3742B7BBB000021D020D0B3
:100F60001FD01ED066953A9581F72FBF81E090E0A3
:100F7000089508954091210120E038E011D010D06B
:100F80000FD00ED00DD0889479B3742309F0089453
:100F900027953A9509F0F3CF03D002D0822F089518
:100FA00080912601982F9A95F1F70895FB0140A1B1
:100FB00051A19A012F5F3F4F2F71332762A173A177
:100FC0002617370731F0DF01A40FB51F8C9331A32B
:100FD00020A308951F920F920FB60F9211242F9302
:100FE0003F934F935F936F937F938F939F93AF93B1
:100FF000BF93EF93FF93BEDF6091240170912501B1
:10100000D5DF449AFF91EF91BF91AF919F918F915E
:101010007F916F915F914F913F912F910F900FBEF4
:101020000F901F901895E5E1F1E01382128288EE8F
:1010300093E0A0E0B0E084839583A683B78382E841
:1010400090E09183808387E291E0908B878784E0B2
:10105000848782E085878DEF8687118A089581B71E
:1010600081BF26DD3ED854D8FECF002480FD060E79
:10107000660F11F08695D1F7802D0895002455272D
:1010800004C0080E591F880F991F009729F0769504
:101090006795B8F37105B9F7802D952F089597FBE3
:1010A000072E16F4009406D077FD08D049D007FC2F
:1010B00005D03EF4909581959F4F08957095619568
:1010C0007F4F0895A1E21A2EAA1BBB1BFD010DC084
:1010D000AA1FBB1FEE1FFF1FA217B307E407F507E8
:1010E00020F0A21BB30BE40BF50B661F771F881FC4
:1010F000991F1A9469F760957095809590959B015A
:10110000AC01BD01CF010895052E97FB16F40094A4
:101110000FD057FD05D0D6DF07FC02D046F408C03B
:1011200050954095309521953F4F4F4F5F4F089513
:1011300090958095709561957F4F8F4F9F4F089543
:10114000AA1BBB1B51E107C0AA1FBB1FA617B707ED
:1011500010F0A61BB70B881F991F5A95A9F7809509
:101160009095BC01CD010895EE0FFF1F0590F491FD
:10117000E02D099410E0CAE3D0E003C0FE01F4DFE3
:0C1180002196CB33D107D1F7F894FFCFB4
:10118C00443A00413A0000000000E80018065601FD
:10119C00C7003C016D0100000000A104180600000E
:0E11AC0000009D071806600782076E07B9074E
:00000001FF
